:100000000C9463000C948B000C948B000C948B006C
:100010000C948B000C948B000C948B000C948B0034
:100020000C948B000C948B000C948B000C948B0024
:100030000C948B000C948B000C948B000C948B0014
:100040000C94C7020C948B000C9495020C946F02D4
:100050000C948B000C948B000C948B000C948B00F4
:100060000C948B000C948B000000000023002600F1
:10007000290000000008000201000003040700003E
:1000800000000000000000000000250028002B00F8
:1000900000000000240027002A00040404040404D3
:1000A0000404020202020202030303030303010227
:1000B00004081020408001020408102001020408F6
:1000C00010205A034F0511241FBECFEFD8E0DEBF2A
:1000D000CDBF22E0ACE0B2E001C01D92AF3EB2075E
:1000E000E1F712E0A0E0B1E0EEE5FFE002C005902C
:1000F0000D92AC30B107D9F710E0C2E6D0E004C0F1
:100100002197FE010E94AA05C136D107C9F70E94B6
:10011000BC030C94A2070C94000090E0FC01E25593
:10012000FF4F249186569F4FFC018491882399F0BC
:1001300090E0880F991FFC01E057FF4FA591B49103
:10014000FC01EA57FF4F859194918FB7F894EC9199
:10015000E22BEC938FBF0895AF92BF92CF92DF92C4
:10016000EF92FF920F931F93CF93DF936C017B016C
:100170008B01040F151FEB015E01AE18BF08C017FD
:10018000D10759F06991D601ED91FC910190F08170
:10019000E02DC6010995892B79F7C501DF91CF9133
:1001A0001F910F91FF90EF90DF90CF90BF90AF9095
:1001B0000895FC01538D448D252F30E0842F90E06D
:1001C000821B930B541710F0CF9608950197089552
:1001D000FC01918D828D981761F0A28DAE0FBF2F1B
:1001E000B11D5D968C91928D9F5F9F73928F90E071
:1001F00008958FEF9FEF0895FC01918D828D9817E0
:1002000031F0828DE80FF11D858D90E008958FEF1C
:100210009FEF0895FC01918D228D892F90E0805CE5
:100220009F4F821B91098F739927089588E192E06F
:100230000E940A0121E0892B09F420E0822F089511
:1002400080E090E0892B29F00E94160181110C9426
:1002500000000895FC01A48DA80FB92FB11DA35A69
:10026000BF4F2C91848D90E001968F739927848FD6
:10027000A689B7892C93A089B1898C9183708064F9
:100280008C93938D848D981306C00288F389E02D9A
:1002900080818F7D80830895EF92FF920F931F934B
:1002A000CF93DF93EC0181E0888F9B8D8C8D981329
:1002B0001AC0E889F989808185FF15C09FB7F89435
:1002C000EE89FF896083E889F98980818370806481
:1002D00080839FBF81E090E0DF91CF911F910F91CC
:1002E000FF90EF900895F62E0B8D10E00F5F1F4FDB
:1002F0000F731127E02E8C8D8E110CC00FB607FCEA
:10030000FACFE889F989808185FFF5CFCE010E9477
:100310002A01F1CFEB8DEC0FFD2FF11DE35AFF4FBA
:10032000F0829FB7F8940B8FEA89FB898081806205
:10033000CFCFCF93DF93EC01888D8823B9F0AA89C2
:10034000BB89E889F9898C9185FD03C0808186FD90
:100350000DC00FB607FCF7CF8C9185FFF2CF8081DF
:1003600085FFEDCFCE010E942A01E9CFDF91CF9129
:100370000895833081F028F4813099F08230A9F01B
:1003800008958730A9F08830C9F08430B1F48091A5
:1003900080008F7D03C0809180008F7780938000E4
:1003A000089584B58F7784BD089584B58F7DFBCF84
:1003B0008091B0008F778093B00008958091B00055
:1003C0008F7DF9CF1F93CF93DF93282F30E0F90172
:1003D000EE58FF4F8491F901E255FF4FD491F90196
:1003E000E656FF4FC491CC23A9F0162F81110E942D
:1003F000B901EC2FF0E0EE0FFF1FEA57FF4FA59178
:10040000B4918FB7F894EC91111108C0D095DE2308
:10041000DC938FBFDF91CF911F910895DE2BF8CF32
:100420003FB7F8948091110290911202A0911302AB
:10043000B091140226B5A89B05C02F3F19F0019674
:10044000A11DB11D3FBFBA2FA92F982F8827BC012E
:10045000CD01620F711D811D911D42E0660F771F56
:10046000881F991F4A95D1F7089542E050E068E14E
:1004700071E088E192E00C94AC00CF93DF93FC0133
:10048000448155816081718188E192E00E94AC00D5
:10049000EC010E9435028C0F9D1FDF91CF910895D2
:1004A000CF93DF93FC0101900020E9F73197AF0172
:1004B000481B590BBC0188E192E00E94AC00EC01A2
:1004C0000E9435028C0F9D1FDF91CF910895FC0192
:1004D00080819181009711F00C944C0608951F9231
:1004E0000F920FB60F9211242F933F934F935F9368
:1004F0006F937F938F939F93AF93BF93EF93FF93EC
:1005000088E192E00E942A01FF91EF91BF91AF91A3
:100510009F918F917F916F915F914F913F912F911B
:100520000F900FBE0F901F9018951F920F920FB64D
:100530000F9211242F938F939F93EF93FF93E0914A
:100540002802F09129028081E0912E02F0912F0281
:1005500082FD1BC09081809131028F5F8F7320914B
:100560003202821741F0E0913102F0E0E85EFD4F87
:10057000958F80933102FF91EF919F918F912F91F1
:100580000F900FBE0F901F9018958081F4CF1F928F
:100590000F920FB60F9211242F933F938F939F9337
:1005A000AF93BF9380910D0290910E02A0910F0224
:1005B000B091100230910C0223E0230F2D3758F533
:1005C0000196A11DB11D20930C0280930D02909302
:1005D0000E02A0930F02B09310028091110290912D
:1005E0001202A0911302B09114020196A11DB11D37
:1005F0008093110290931202A0931302B0931402FD
:10060000BF91AF919F918F913F912F910F900FBE0E
:100610000F901F90189526E8230F0296A11DB11D7B
:10062000D2CFEF92FF920F931F93CF93DF93EC0102
:100630007B01198218821B821A821D821C82FB0197
:1006400001900020E9F731978F01061B170BB801C5
:100650006F5F7F4F90E080E00E94D5060097B9F071
:10066000998388831B830A832C813D81232B11F47A
:10067000FC0110821D830C83B70188819981DF9171
:10068000CF911F910F91FF90EF900C949B07888161
:100690009981009711F00E944C06198218821D82E0
:1006A0001C821B821A82DF91CF911F910F91FF90C4
:1006B000EF900895E8E1F2E01382128288EE93E071
:1006C000A0E0B0E084839583A683B7838AE091E0BD
:1006D0009183808385EC90E09587848784EC90E01B
:1006E0009787868780EC90E0918B808B81EC90E0FF
:1006F000938B828B82EC90E0958B848B86EC90E0E0
:10070000978B868B118E128E138E148E6BE171E097
:1007100085EE92E00E94110364E371E08FED92E0B8
:100720000E94110369E471E089ED92E00E941103D7
:1007300065E571E083ED92E00E9411036DE871E0E0
:100740008DEC92E00E94110368EA71E087EC92E080
:100750000E94110364E371E081EC92E00E941103B6
:1007600062EC71E08BEB92E00E9411036CEC71E0A3
:1007700085EB92E00C941103789484B5826084BD7B
:1007800084B5816084BD85B5826085BD85B5816095
:1007900085BD80916E00816080936E001092810013
:1007A00080918100826080938100809181008160CE
:1007B000809381008091800081608093800080918F
:1007C000B10084608093B1008091B000816080931B
:1007D000B00080917A00846080937A0080917A00E2
:1007E000826080937A0080917A00816080937A00A1
:1007F00080917A00806880937A001092C100E09125
:100800002802F091290282E08083E0912402F09195
:1008100025021082E0912602F09127028FEC80835E
:1008200010923002E0912C02F0912D0286E080833C
:10083000E0912A02F0912B02808180618083E09117
:100840002A02F0912B02808188608083E0912A0245
:10085000F0912B02808180688083E0912A02F091E0
:100860002B0280818F7D808382E00E948D0083E057
:100870000E948D008DE00E948D0061E082E00E9468
:10088000E20160E083E00E94E20160E08DE00E940E
:10089000E20101E42EE7822E20E0922E3AEB232E95
:1008A00030E0332E40E0A42E40E0B42E11E000935F
:1008B0007C0080917A00806480937A0080917A0035
:1008C00086FDFCCF8091780060907900762C682EB0
:1008D000F4018491F101C491E6EAF0E0D491DD23C2
:1008E00009F498C081110E94B901ED2FF0E0EE0FDC
:1008F000FF1FE859FF4FA591B4918C91C82391E057
:1009000080E009F490E0C92FD82F8091170281115F
:100910001AC085EE92E00E943D028FED92E00E94A7
:100920003D0289ED92E00E943D0283ED92E00E943B
:100930003D028DEC92E00E943D028AEE91E00E9421
:10094000500210931702F4E66F1671040CF065C0A4
:100950001093160261E08DE00E94E20161E082E006
:100960000E94E20160E083E00E94E2018AEE91E0F1
:100970000E9450028091150281111AC08CEE91E004
:100980000E9450028DEF91E00E94500287EC92E0AD
:100990000E943D0281EC92E00E943D028BEB92E0CE
:1009A0000E943D0285EB92E00E943D0210931502E9
:1009B000219709F044C061E08DE00E94E20161E00E
:1009C00082E00E94E20160E083E00E94E2018AEEA0
:1009D00091E00E94500280911502811130C08CEE8E
:1009E00091E00E9450028DEF91E00E94500287EC4E
:1009F00092E00E943D0281EC92E00E943D028BEB6E
:100A000092E00E943D0285EB92E00E943D0210932D
:100A1000150215C0D0E0C0E078CF10921602CD2BA1
:100A200051F660E08DE00E94E20160E082E00E9409
:100A3000E20161E083E00E94E201109215020E944F
:100A400010026B017C0186E9482E512C612C712C1F
:100A50000E9410026C197D098E099F09683E73403F
:100A600081059105A8F321E0421A51086108710837
:100A700088EEC80E83E0D81EE11CF11C411451041D
:100A80006104710429F7A114B10409F410CF0E9484
:100A90001601882309F40BCF0E94000008CF85EBD4
:100AA00092E00E9467028BEB92E00E94670281EC69
:100AB00092E00E94670287EC92E00E9467028DEC50
:100AC00092E00E94670283ED92E00E94670289ED46
:100AD00092E00E9467028FED92E00E94670285EE2D
:100AE00092E00C9467022F923F924F925F926F9226
:100AF0007F928F929F92AF92BF92CF92DF92EF92AE
:100B0000FF920F931F93CF93DF93CDB7DEB7CA1B2E
:100B1000DB0B0FB6F894DEBF0FBECDBF09942A8859
:100B2000398848885F846E847D848C849B84AA8401
:100B3000B984C884DF80EE80FD800C811B81AA818E
:100B4000B981CE0FD11D0FB6F894DEBF0FBECDBF59
:100B5000ED010895EE0FFF1F0590F491E02D09942B
:100B60000F931F93CF93DF938230910510F482E0AF
:100B700090E0E091ED02F091EE0230E020E0B0E094
:100B8000A0E0309799F42115310509F44AC0281BDB
:100B9000390B24303105D8F58A819B8161157105A7
:100BA00089F1FB0193838283FE0111C04081518151
:100BB0000281138148175907E0F04817590799F443
:100BC000109761F012960C93129713961C9332961D
:100BD000CF01DF91CF911F910F9108950093ED0206
:100BE0001093EE02F4CF2115310551F0421753074F
:100BF00038F0A901DB019A01BD01DF01F801C1CF85
:100C0000EF01F9CF9093EE028093ED02CDCFFE017C
:100C1000E20FF31F81939193225031093983288386
:100C2000D7CF2091EB023091EC02232B41F420919D
:100C30000201309103013093EC022093EB022091EA
:100C40000001309101012115310541F42DB73EB766
:100C50004091040150910501241B350BE091EB02FA
:100C6000F091EC02E217F307A0F42E1B3F0B2817BC
:100C7000390778F0AC014E5F5F4F2417350748F015
:100C80004E0F5F1F5093EC024093EB0281939193C0
:100C90009FCFF0E0E0E09CCFCF93DF930097E9F0A7
:100CA000FC01329713821282A091ED02B091EE0204
:100CB000ED0130E020E01097A1F420813181820F16
:100CC000931F2091EB023091EC022817390709F0AD
:100CD00061C0F093EC02E093EB02DF91CF910895B5
:100CE000EA01CE17DF07E8F54A815B819E014115D5
:100CF0005105B1F7E901FB83EA8349915991C40F8A
:100D0000D51FEC17FD0761F4808191810296840F55
:100D1000951FE90199838883828193819B838A83CC
:100D2000F0E0E0E012968D919C9113970097B9F551
:100D30002D913C911197CD010296820F931F209126
:100D4000EB023091EC022817390739F6309751F54C
:100D50001092EE021092ED02B093EC02A093EB021F
:100D6000BCCFD383C28340815181840F951FC817A4
:100D7000D90761F44E5F5F4F88819981480F591FF1
:100D8000518340838A819B8193838283211531051E
:100D900009F0B0CFF093EE02E093ED029ECFFD019B
:100DA000DC01C0CF13821282D7CFB0E0A0E0EBED20
:100DB000F6E00C9475058C01009751F4CB010E946C
:100DC000B0058C01C801CDB7DEB7E0E10C94910508
:100DD000FC01E60FF71F9C0122503109E217F307CF
:100DE00008F49DC0D901CD91DC911197C617D707A2
:100DF00098F0C530D10530F3CE01049786179707D8
:100E000008F3C61BD70B2297C193D1936D937C93A4
:100E1000CF010E944C06D6CF5B01AC1ABD0A4C0133
:100E20008C0E9D1EA091ED02B091EE02512C412C32
:100E3000F12CE12C109731F58091EB029091EC02AE
:100E40008815990509F05CC04616570608F058C089
:100E50008091000190910101009741F48DB79EB7F8
:100E60004091040150910501841B950BE817F90787
:100E700008F055C0F093EC02E093EB02F9017183A6
:100E80006083A0CF8D919C91119712966C901297D0
:100E900013967C901397A815B90559F56C0142E09B
:100EA000C40ED11CCA14DB0420F1AC014A195B0941
:100EB000DA011296159780F0628273825183408323
:100EC000D9016D937C93E114F10471F0D70113966D
:100ED000FC93EE93129776CF22968C0F9D1FF9010B
:100EE00091838083F301EFCFF093EE02E093ED0264
:100EF00069CF4816590608F42C017D01D3019ACF19
:100F0000CB010E94B0057C01009749F0AE01B80109
:100F10000E949207C8010E944C06870153CF10E03F
:100F200000E050CFFB01DC0102C001900D92415066
:100F30005040D8F70895FB01DC0101900D9200208C
:100F4000E1F7089510E0C2E6D0E004C0FE010E947F
:0E0F5000AA052196C336D107C9F7F894FFCF42
:100F5E000000EF028000000000004C01AC00D90040
:100F6E0099010A01E800FC000D0A004745545C2077
:100F7E00466972654261736520726573706F6E7338
:100F8E00652E0A005365742050726F746F636F6C18
:100F9E002048545450732E0A00524543495645205A
:100FAE004A534F4E0068747470733A2F2F6D696EEA
:100FBE006970726F6A65742D39663732382E6669BC
:100FCE00726562617365696F2E636F6D2F617069F3
:100FDE002F53797374656D2E6A736F6E007B0A20C2
:100FEE002253797374656D22203A2022416374690D
:100FFE00766522200A7D0A00504F53545C204669C4
:10100E0072654261736520726573706F6E73652EC3
:10101E000A0053454E44204A534F4E007B0A20226D
:10102E0053746174757322203A2022496E7472755E
:10103E0073696F6E22200A7D0A0020004574617468
:10104E00206427496E74727573696F6E004163690F
:0C105E007661746520416C61726D650064
:00000001FF
